:100000000C94E8030C9419040C9419040C9419042E
:100010000C9419040C9419040C9419040C941904EC
:100020000C9419040C9419040C9419040C941904DC
:100030000C9419040C9419040C9419040C941904CC
:100040000C9419040C9419040C9419040C941904BC
:100050000C9419040C9419040C9419040C94F516BE
:100060000C9419040C946E1A0C94A41A0C94190490
:100070000C9419040C9419040C9419040C9419048C
:100080000C9419040C9419040C9419040C9419047C
:100090000C941B1B0C94511B0C9419040C948F1181
:1000A0000C9419040C9419040C9419040C9419045C
:1000B0000C9419040C9419040C9419040C9419044C
:1000C0000C9419040C9419040C9419040C9419043C
:1000D0000C9419040C9419040C9419040C9419042C
:1000E0000C94190411181418031807180D184B183C
:1000F00018181C18221826182A18301834183818FE
:100100004B183E18421846180C9423110C94FA18F8
:100110000C94F6100C9446180C9462110C944B1825
:100120000C94CF160C942A180C94C0120C94851BB6
:100130000C94F5100C94CE1A0C94F5120C9427190B
:100140000C9444130C9413190C9418180C94A004D8
:100150000C9414180C94F2160C9434180C94E116A8
:100160000C9485190C9430180C94D3100C9411181D
:100170000C9426180C9403180C94D81B0C941C187F
:100180000C94CB100C9438180C9442180C94D81A78
:100190000C94A7190C94E6100C940D180C942218CA
:1001A0000C9407180C947B1B0C9405190C943E18A6
:1001B0000C94D41545000082000040002000010886
:1001C000000604000100000000003E5B4F5B3E3E65
:1001D0006B4F6B3E1C3E7C3E1C183C7E3C181C57F3
:1001E0007D571C1C5E7F5E1C00183C1800FFE7C397
:1001F000E7FF0018241800FFE7DBE7FF30483A0666
:100200000E2629792926407F050507407F05253FD1
:100210005A3CE73C5A7F3E1C1C08081C1C3E7F14BD
:10022000227F22145F5F005F5F06097F017F006607
:1002300089956A606060606094A2FFA29408047E61
:10024000040810207E201008082A1C08081C2A0810
:10025000081E101010100C1E0C1E0C30383E3830CA
:10026000060E3E0E06000000000000005F000000C9
:1002700007000700147F147F14242A7F2A122313F7
:1002800008646236495522500005030000001C2214
:1002900041000041221C0014083E081408083E08D2
:1002A00008005030000008080808080060600000DE
:1002B00020100804023E5149453E00427F40004262
:1002C000615149462141454B311814127F10274591
:1002D0004545393C4A4949300171090503364949C8
:1002E0004936064949291E003636000000563600B8
:1002F000000814224100141414141400412214089C
:100300000201510906324979413E7E1111117E7F69
:10031000494949363E414141227F4141221C7F49A2
:100320004949417F090909013E4149497A7F080845
:10033000087F00417F41002040413F017F08142297
:10034000417F404040407F020C027F7F0408107FC5
:100350003E4141413E7F090909063E4151215E7FF0
:1003600009192946464949493101017F01013F40A8
:1003700040403F1F2040201F3F4038403F6314084B
:10038000146307087008076151494543007F4141E4
:100390000002040810200041417F00040201020411
:1003A0004040404040000102040020545454787FF3
:1003B000484444383844444420384444487F3854FE
:1003C000545418087E0901020C5252523E7F080410
:1003D000047800447D40002040443D007F102844C4
:1003E0000000417F40007C041804787C08040478F5
:1003F00038444444387C14141408081414187C7CC1
:10040000080404084854545420043F4440203C400D
:1004100040207C1C2040201C3C4030403C442810A4
:1004200028440C5050503C4464544C44000836411D
:100430000000007F00000041360800100808100886
:1004400078464146781EA1A161123A4040207A3890
:1004500054545559215555794121545478412155C9
:1004600054784020545579400C1E5272123955551B
:100470005559395454545939555454580000457CF1
:10048000410002457D420001457C40F0292429F0CD
:10049000F0282528F07C545545002054547C547C89
:1004A0000A097F4932494949323248484832324A7A
:1004B0004848303A4141217A3A42402078009DA094
:1004C000A07D39444444393D4040403D3C24FF2414
:1004D00024487E4943662B2FFC2F2BFF0929F62049
:1004E000C0887E090320545479410000447D413086
:1004F00048484A32384040227A007A0A0A727D0D12
:1005000019317D2629292F28262929292630484DC9
:100510004020380808080808080808382F10C8AC18
:10052000BA2F102834FA00007B000008142A142285
:1005300022142A1408AA005500AAAA55AA55AA00EE
:100540000000FF00101010FF00141414FF00101022
:10055000FF00FF1010F010F0141414FC001414F736
:1005600000FF0000FF00FF1414F404FC1414171023
:100570001F10101F101F1414141F00101010F00073
:100580000000001F101010101F10101010F01000AD
:100590000000FF101010101010101010FF100000BD
:1005A00000FF140000FF00FF00001F10170000FCF8
:1005B00004F414141710171414F404F40000FF00CA
:1005C000F714141414141414F700F7141414171453
:1005D00010101F101F141414F4141010F010F00059
:1005E000001F101F0000001F14000000FC1400007A
:1005F000F010F01010FF10FF141414FF141010105E
:100600001F00000000F010FFFFFFFFFFF0F0F0F010
:10061000F0FFFFFF0000000000FFFF0F0F0F0F0FA4
:1006200038444438447C2A2A3E147E0202060602DC
:100630007E027E0263554941633844443C04407E57
:10064000201E2006027E020299A5E7A5991C2A49D0
:100650002A1C4C7201724C304A4D4D30304878485B
:1006600030BC625A463D3E494949007E0101017E47
:100670002A2A2A2A2A44445F444440514A4440409A
:10068000444A51400000FF0103E080FF00000808D9
:100690006B6B083612362436060F090F0600001859
:1006A000180000001010003040FF0101001F010180
:1006B0001E00191D1712003C3C3C3C0000000000CD
:1006C00000000A0B02090C0D0E08070304010000CC
:1006D000000000000000000000000000000000001A
:1006E00000000000000000000000000012111000D7
:1006F00000000000000000000000000000000000FA
:100700000000000000000102102020080810204016
:1007100010204080020102010804020101020408C5
:100720001020408080402010080402018004020153
:10073000804020100804020108040201010204089C
:1007400010204080010204081020408005050505A6
:10075000070508080808020202020A0A0808040439
:100760000404010101010101010103030303030367
:100770000303040707070C0C0C0C0C0C0C0C0202F6
:10078000020206060606060606060B0B0B0B0B0BF3
:100790000B0B00002200250028002B002E0031004A
:1007A000340002010000050108010B0100002100D6
:1007B000240027002A002D00300033000101000032
:1007C000040107010A01A0046211F216D81A851B60
:1007D00011241FBECFEFD1E2DEBFCDBF00E00CBFC2
:1007E00013E0A0E0B2E0E2E7FAE300E00BBF02C0F2
:1007F00007900D92A831B107D9F72FE0A8E1B3E037
:1008000001C01D92AD38B207E1F717E0C0EDD7E0A7
:1008100000E006C022970109FE010BBF0E941D1DCA
:10082000C63CD10780E00807A9F70E94C91B0C94B9
:10083000371D0C940000CF93DF9326E040E855E28B
:1008400060E070E080EF9EE00E940C1A88E193E087
:100850000E94BD1369E088E193E00E947F1388E164
:1008600093E00E94231488E193E00E947F144CE1FE
:100870006AE272E088EE93E00E94C30A811103C02D
:1008800060E672E002C065E872E080EF9EE00E94E0
:10089000331C2EE132E04AE152E062E272E086E28D
:1008A00092E00E94E60A811106C066EA72E080EFDB
:1008B0009EE00E94331CC3E5D7E069914AE050E016
:1008C00080EF9EE00E94AB1C6FEB72E080EF9EE039
:1008D0000E94161C87E0C735D80779F760EC72E0F4
:1008E00080EF9EE00E94331C60E086E092E00E9470
:1008F000F206811105C061EC72E083E59EE004C060
:100900006CEC72E080EF9EE00E94331CCBE3D7E0FA
:1009100069914AE050E080EF9EE00E94AB1C6FEBD3
:1009200072E080EF9EE00E94161C87E0CF33D8076C
:1009300079F7DF91CF9108950E9467090C94C30D58
:1009400069E68AE097E00E94B00410921B031092BF
:100950001A038AEF92E09093190380931803089585
:10096000FC0160830895E0911C07F0911D079F0131
:100970002F5F3F4F30931D0720931C0780830895FE
:100980001F93CF93DF93C62FD72F182F160F1C1747
:1009900021F089910E94B304FACFDF91CF911F918A
:1009A00008950F931F93CF93DF9300D000D0CDB75E
:1009B000DEB786E0EAE5F2E0DE01119601900D92E5
:1009C0008A95E1F786E191E0E2E2F3E0DF019C0144
:1009D0001D9221503040E1F780912E07833021F0A5
:1009E000BE016F5F7F4F02C063E477E043E450E0F5
:1009F00084E490E00E94AC0C80912E07833039F0A3
:100A0000BE016F5F7F4F82E293E00E94C31081E0DE
:100A100080934C0380934D0386E080934E03809136
:100A20002A0790912B07A0912C07B0912D07809356
:100A3000500390935103A0935203B09353038091BA
:100A40002E07833031F463E577E088E593E00E9478
:100A5000B81067E577E088E693E00E94C31088E36A
:100A600094E090931D0780931C0760E372E086E09A
:100A70000E94C00410912E07111102C081E001C034
:100A800083E00E94B3048DE30E94B30487E00E94D8
:100A9000B30481E00E94B30467E577E086E00E943A
:100AA000C0048CE00E94B3048AE00E94B30466E3B1
:100AB00072E08AE00E94C0041130B1F482E30E9427
:100AC000B30484E00E94B30463E577E084E00E940D
:100AD000C00486E30E94B30484E00E94B30463E48C
:100AE00077E084E00E94C00410911B07111102C03E
:100AF00003E001C004E087E30E94B304802F0E945A
:100B0000B30481E00E94B30483E00E94B30486E052
:100B10000E94B304112319F0812F0E94B3048FEFB8
:100B20000E94B30480911C0790911D078C54934040
:100B30000E94020D26960FB6F894DEBF0FBECDBF01
:100B4000DF91CF911F910F9108950F931F93A62FBF
:100B50008634910580F120914503233461F500919D
:100B6000500310915103209152033091530340914F
:100B70002A0750912B0760912C0770912D070417BD
:100B8000150726073707B9F4ECE3F4E08E5D9C4FB8
:100B90009F012E5F3F4F41815081553319F452819F
:100BA0005A1739F0F901E40FF11DE817F90780F33E
:100BB00002C081E001C080E01F910F910895CF92A3
:100BC000DF92EF92FF920F931F93CF93DF938C01ED
:100BD00080912E07823009F4C8C030F4882351F187
:100BE000813009F440C0F5C0833021F0843009F42D
:100BF000BCC0EFC00E943F17C0901E07D0901F07D7
:100C0000E0902007F0902107009122071091230720
:100C10002091240730912507C00ED11EE21EF31E3D
:100C20006C157D058E059F0508F4D3C00E94D10484
:100C300084E08EC00E943F1760932A0770932B07B1
:100C400080932C0790932D0710925307109254070E
:100C500010925507109256070E94D10481E00E941D
:100C6000C90981E075C062E0C8010E94A50588231A
:100C700009F481C06CE573E083E597E00E94B81049
:100C8000ECE3F4E00E5D1C4F8081EF012296F180D1
:100C90008333F1F050F4833099F08630A9F081303D
:100CA000D1F5BE018FE497E033C08A3389F08F3FDE
:100CB00009F43FC0863379F5BE0183E497E028C08C
:100CC000BE0187E497E024C0BE018FE397E020C017
:100CD000FE0184E040E050E0BA0191912227342FD8
:100CE000452F562F290F311D411D511D815019F0DF
:100CF000BA01A901F2CFA8EEB3E00E94121D6093E1
:100D00001E0770931F07809320079093210713C03D
:100D10000E94B81010C0E0911907F0911A0730979F
:100D200051F090911B07891306C04F2DBE011995F4
:100D300002C081E001C080E0FE01EF0DF11D8111D4
:100D400004C0E017F10708F49FCF0E94D10482E0AD
:100D500080932E070E943F17609326077093270702
:100D6000809328079093290734C065E0C8010E944A
:100D7000A505811116C00E943F170091260710910A
:100D800027072091280730912907005F184D2F4F22
:100D90003F4F0617170728073907D8F410922E0778
:100DA00018C081E00E948F0A0E943F1760932207BB
:100DB000709323078093240790932507809147071A
:100DC000882321F087E497E00E94270D83E0809339
:100DD0002E07DF91CF911F910F91FF90EF90DF9041
:100DE000CF900895EF92FF920F931F93CF93DF93CD
:100DF000D82FF92EE62E0E943F178B010E941D0965
:100E0000C82F811114C00E943F17601B710B603303
:100E10007547A0F3C0E0E9C00E9467090E94C30DB6
:100E20000E943F17601B710B6033754798F70E9453
:100E3000200D8111F1CF10923B0710923C071092C8
:100E40003D0710923E0780912F078F5F80932F07F9
:100E500090913F0791110BC048E058E0BA014093D0
:100E60003F0750934007609341077093420790E01B
:100E700045E350E06FE377E0906E0E94AC0C8CE0AD
:100E8000ECE4F3E0DF011D928A95E9F7A8E5B3E011
:100E90006D2F7F2D362F3D1BFB01EE2011F02081A1
:100EA00001C024916F5F7F4F2E3251F0222341F019
:100EB000862F8D1BAD01480F511DFA012083EACF0B
:100EC000CD0101963C93DC01A30FB11D222319F043
:100ED000D62FF72EDDCF1C9211961C92119721E090
:100EE00012962C93129713961C92139714962C9388
:100EF000149782E293E0A81BA552A0934C03809123
:100F00002F0780934D0320934E03209351038A2F84
:100F100090E00E94020D0E943F178B0180913B07D9
:100F2000811163C00E943F17601B710B60337547CE
:100F300008F070CF0E9467097C01009779F30E9446
:100F4000C30D892B59F746E4E416F10438F3809178
:100F50004503853319F780914603803EF9F6809169
:100F6000470390912F078913D9CF90914D03981380
:100F7000D5CF80914F038F7009F04CCFE0914C0397
:100F8000F0E0E45BFC4FC7018E5D9C4F2081207C2C
:100F900019F0DF0112960BC03196DF01E817F9074F
:100FA00030F4FD0131962C912111F7CFDF019D0125
:100FB000225F3F4F8217930708F4B0CF11962C9110
:100FC00011971996EC911997213051F4E43041F4BE
:100FD000BD01665F7F4F8BE397E00E94B8109ECF04
:100FE000F0E03A96EA0FFB1FD1CF8C2FDF91CF9123
:100FF0001F910F91FF90EF9008958EBD0DB407FEE5
:10100000FDCF089561E0809130070E9485187894A3
:101010000895F89460E0809130070C9485181F9330
:10102000CF93DF931F921F92CDB7DEB7182F4A835D
:1010300069830E9409086981862F8F71812B0E9424
:10104000FD074A81842F0E94FD070F900F90DF91CA
:10105000CF911F910C9402081F93CF93DF93182F09
:101060001076C12FD0E02091330730E0C217D307AC
:10107000A1F043E06FE180EA0E940F08109333076C
:10108000AE0185E0559547958A95E1F76FE180E8D7
:10109000DF91CF911F910C940F08DF91CF911F9199
:1010A00008951F93CF93DF931F92CDB7DEB7182F0C
:1010B00069830E942C084981612F80E40F90DF91A1
:1010C000CF911F910C940F081F93CF93DF931F9222
:1010D000CDB7DEB7182F79830E9451087981672F29
:1010E00081E0810F0F90DF91CF911F910C945108F7
:1010F000EF92FF920F931F93CF93DF931F921F9254
:10110000CDB7DEB78C0169837A830E9409088AE72C
:101110000E94FD076981E62E7A81F72E0E0D1F1DB4
:10112000E016F10631F0F70181917F010E94FD0781
:10113000F7CF0F900F90DF91CF911F910F91FF90FC
:10114000EF900C940208EF92FF920F931F93CF93AE
:10115000DF931F921F92CDB7DEB78C0169837A832C
:101160000E9409088AE30E94FD076981E62E7A81C0
:10117000F72E0E0D1F1DE016F10641F080E00E94D3
:10118000FD078EB5F70181937F01F5CF0F900F908A
:10119000DF91CF911F910F91FF90EF900C94020877
:1011A0001F93CF93DF931F92CDB7DEB7182F0E9406
:1011B0000908812F8F710E94FD0780E00E94FD07C2
:1011C00017FF03C080E00E94FD078EB589830E944F
:1011D000020889810F90DF91CF911F910895CF93DD
:1011E000C82F0E942C088C2FCF910C94D00861E05E
:1011F00085E30E944C1861E085E30E94851861E058
:1012000083E30E944C1861E084E30E944C1860E084
:1012100082E30E944C1861E083E30E94851860E03D
:1012200083E30E94851860E084E30E94851880E5CE
:101230008CBD8DB581608DBD089561E184ED0E9406
:10124000510861E082ED0E9451088AEE0E94EF0889
:1012500080FDFBCF60E082ED0E94510889ED0E9485
:10126000EF0882FB882780F90895CF93DF93EC0184
:101270008CE10E94EF0881FF0FC040E86FE180E839
:101280000E940F0840E86FE180EA0E940F0842E0E8
:101290006CE180EA0E940F0860E07CE082E00E943E
:1012A0006408BE01745F86E00E94640840E060E06C
:1012B0008AE70E940F0862E273E0CE010E9478087C
:1012C00048E06FE180E8DF91CF910C940F080F9315
:1012D0001F93CF93DF9300D000D0CDB7DEB789E363
:1012E0000E94EF08882309F446C06091310770918D
:1012F000320780E00E946408BE016F5F7F4F86E086
:1013000090E00E94A30889819A819093320780938C
:1013100031078B819C8100913507109136072D8113
:1013200027FF0DC00497015011098017910708F499
:101330008C0162E273E0C8010E94A30802C000E0D1
:1013400010E0F801EE5DFC4F108260913107709162
:10135000320761308CE078071CF06FEF7BE002C051
:10136000615071098CE00E94640840E46EE180E8FD
:101370000E940F0802C000E010E0C80126960FB6D8
:10138000F894DEBF0FBECDBFDF91CF911F910F91BB
:101390000895CF93C82F88E30E94EF08682F6160FB
:1013A00088E30E945108C11103C081E08093340793
:1013B000CF9108950F931F93CF93DF931F92CDB7D3
:1013C000DEB78B0190933607809335070CB406FC8B
:1013D00004C049830E94F70849814093300761E0C7
:1013E000842F0E944C180E9402084FEF60E08FEF9C
:1013F0000E940F0862E070E080E090E00E946E17AB
:101400008DE10E94D0088823D9F310923207109200
:10141000310760E070E088E00E94640860E070E0FE
:101420008CE00E9464086FEF7BE08AE00E94640811
:1014300060E07CE084E00E9464086FEF71E186E088
:101440000E94640880E00E94C9096FE370E388E2AB
:101450000E94640869EF77EF80E30E9464086DE002
:1014600080EC0E94510860E081EC0E94510842E348
:1014700062EC80E80E940F0862E17CE086EC0E944A
:10148000640862E184EC0E9451086CED75E08AEC1E
:101490000E946408F801608184EE0E945108F801FE
:1014A000618185EE0E945108F801628182EE0E94FE
:1014B0005108F801638183EE0E945108F8016481AC
:1014C00080EE0E945108F801658181EE0E9451086A
:1014D00060E184ED0E94510860E071E086ED0E94B9
:1014E00064088AEE0E94EF0880FDFBCF8FE10E9426
:1014F0002C0840EC6BE180E80E940F0844E06FE1AB
:1015000080E80E940F0882E70E94EF08863008F00A
:101510008F5F0F90DF91CF911F910F9108958111EF
:1015200002C01092340780913407811108C088E30B
:101530000E94EF08682F6E7F88E30C94510808958D
:10154000E82FF0E093E0F595E7959A95E1F7E35AF7
:10155000F84F877041E050E060E070E004C0440F55
:10156000551F661F771F8A95D2F78081842B808351
:101570000895CF93C82FC15021F08C2F0E94A00A4C
:10158000FACFCF9108950F931F93CF93DF9300D09D
:10159000CDB7DEB78C0110923A0788E34B8369839D
:1015A0007A830E94B90A69817A8187E597E00E946F
:1015B000C3104B8167E577E0C8010F900F900F9043
:1015C000DF91CF911F910F910C94DA09EF92FF9266
:1015D0000F931F93CF93DF938B017A01E901109250
:1015E0003A07009729F0BC0183E597E00E94B81004
:1015F0000115110519F0C8010E94270DE114F1042D
:1016000029F0B7018FE397E00E94B810209729F0E6
:10161000BE018FE497E00E94B8100E94330D109233
:1016200038071092370781E0DF91CF911F910F911A
:10163000FF90EF9008950F931F93CF93DF9370E087
:101640006E5D7C4F213021F48A01075F1F4F05C07A
:10165000223031F48A010250110920E030E003C049
:1016600000E010E09801DB01FA01E230F10578F0CA
:10167000CC91D0E0DC2FCC2711969C911197C92BEF
:101680000C0F1D1F211D311D12963297EECFDA016E
:10169000AE7FA60FB71F40FF0CC04C9150E060E03A
:1016A00070E0762F652F542F4427040F151F261F37
:1016B000371FA90166277727411551056105710577
:1016C00019F022273327F1CF00951095E82FF0E08D
:1016D000EE5DFC4F10830183DF91CF911F910F913D
:1016E000089510923A0310923B0380E480933603EE
:1016F000109237038093380320E044E150E06EE01D
:1017000088E10C941B0B20914603309144033093E5
:1017100046032093440320914703309145033093BF
:10172000470320934503ECE4F3E0A0E5B3E0229106
:10173000820F911D2E918C93662311F0208301C09E
:101740001082892F992723E0E834F20781F710925D
:1017500054031092550380E58093500308958091BF
:10176000320390E0982F882720913303822B4497EF
:101770002091500330E044E0359527954A95E1F7F4
:10178000220F331F220F331F821B930B97FF02C0C0
:1017900080E090E00895CF93DF93EC0188969093DA
:1017A0003203809333030E94710B10925403109202
:1017B0005503AE01445E5F4F22E06AE182E30E947E
:1017C0001B0BCE01C696DF91CF910C943509BC015D
:1017D00082E293E00E94C31067E577E088E293E03D
:1017E0000C94C31088E293E00E94E70B6CE373E073
:1017F00080E493E00E94B81063E577E08CE393E027
:101800000E94B8100C94710B262F20612093510375
:10181000643021F0009711F481E090E061E00E94D3
:10182000830B1092320388E2809333030E94F20B01
:1018300084E0809352031092530322E04CE150E085
:101840006AE182E30E941B0B86E390E00C94350969
:10185000CF93DF931F921F92CDB7DEB769837A8350
:101860000E94E70B69817A8180E493E00E94B810BE
:1018700063E577E08CE393E00F900F90DF91CF91D9
:101880000C94B8101F93CF93DF93EC0180EE92E09D
:101890000E94E70B88E080932E0316E010932F033D
:1018A00048E050E06DEB71E080E393E00E94211D81
:1018B000E2E4F3E0DF011D921A95E9F767E577E0CE
:1018C00088E393E00E94C310BE0188E493E00E9485
:1018D000B81063E577E08EE393E00E94B8108AE2E7
:1018E00090E0DF91CF911F910C943509CF93DF9356
:1018F000EB0144E050E0BC018EE393E00E942A1D1E
:10190000892B39F468E373E0CE010E94C31081E0B3
:1019100001C080E0DF91CF910895CF93DF932091B4
:1019200053072223A9F0FC012081222389F0E3E55B
:10193000F7E0EC01AFE4B7E0219189919D91822716
:10194000892331F487E0E735F807B1F781E001C07A
:1019500080E0DF91CF910895CF92DF92EF92FF92D6
:101960000F931F93CF93DF93F82EE92EEB01D42E24
:10197000C52ECB010E948D0CBE01882319F08AE888
:1019800097E002C080E897E00E94280C2881207F21
:10199000203E49F0088119812A813B810F3F1F4F6A
:1019A0002F4F3F4F31F460EE72E082E293E00E94ED
:1019B000C31088E080932E0310922F0349E050E07B
:1019C00064EB71E080E393E00E94211D10923203EA
:1019D00081E180933903C0924603D0924703E0929D
:1019E0004403F09245031092480310924A03109268
:1019F0004B03DF91CF911F910F91FF90EF90DF90FC
:101A0000CF900895CF93DF93EC014C9690933203DF
:101A1000809333030E94710BCE0108969093480384
:101A200080934903AE01405F5F4F21E06AE188E2A5
:101A30000E941B0BCE018A96DF91CF910C94350941
:101A400080917F078695817091E089270895109293
:101A500038071092370721E020937F07BC0187E405
:101A600097E00C94B810CF93DF93E3E5F7E0CFE471
:101A7000D7E0ABE4B7E0919189918095892B8D9364
:101A800087E0E735F807B9F7DF91CF9108951F9305
:101A9000CF93DF93EB014091460350E0292F30E0D4
:101AA0004217530709F067C090914703981363C02A
:101AB0001091510311FF3BC0109232038CE28093CE
:101AC00033030E94F20B82E18093510360E081E0D6
:101AD00090E00E94830B109248031092490380917A
:101AE000580280934A0310924B038D5F80935802F3
:101AF00082E08093580384E08093590385E08093CB
:101B00005A0310925B0390E6909350038093520324
:101B100088E78093530322E040E250E06AE182E3E9
:101B20000E941B0B8AE390E00E94350924C014FF39
:101B300022C00E94AF0B90937E0780937D07892B74
:101B400099F02091500330E054E0359527955A954F
:101B5000E1F7220F331F220F331F2E5D3F4F2897CF
:101B6000C217D30758F407C010FF05C060E080E03B
:101B700090E00E94040C80E090E001C0C901DF9178
:101B8000CF911F910895EF92FF920F931F93CF93E0
:101B9000DF931F92CDB7DEB77C0180913A0788238F
:101BA00019F0C7010E94DF05E114F10409F0BDC07E
:101BB00080917F07857051F08091370790913807A9
:101BC000892B21F40E941D098111C7C0809137071C
:101BD000909138070196909338078093370780914A
:101BE0009807813009F07CC080917F0781FF78C021
:101BF00082E080939807809159028F5F8093590209
:101C000010919607009197078F71F82E8091990790
:101C100020E2829FC0011124F82A8BE397E00E9402
:101C20008D0C6BE377E0882319F08AE897E002C017
:101C300080E897E00E94280CB8E0EB2EE0922E039B
:101C400010922F0349E050E064EB71E080E393E0F1
:101C50000E94211D8CE28093330386E08093390338
:101C60000E94710B00934603109347038BE080930F
:101C70004403F0924503E8E4F3E0DF011D92EA94A7
:101C8000E9F78091580280934A038D5F8093580250
:101C900080E68093500382E08093510393E0909319
:101CA0005203109253031092540310925503109252
:101CB0005603109257038093580394E0909359036E
:101CC00080935A0386E280935B0322E040E250E077
:101CD0006AE182E30E941B0B8AE390E00E943509CF
:101CE0008FE397E00E948D0C882341F08091880754
:101CF000811104C0809189078823C9F18BE397E0A3
:101D00000E948D0C882309F4D4C18091860781112B
:101D1000D0C1809187078111CCC18BE397E00E94ED
:101D2000420C81E080938707C4C1B9E2EB16F1044D
:101D300008F4BFC110912E03183009F580912F03CC
:101D40008630E9F444E050E063E577E088E493E02E
:101D50000E942A1D892B99F445C087E497E00E94D0
:101D6000420C80917F07886080937F072FCF8FE39D
:101D700097E00E94420C81E080938907BFCFFAE28E
:101D8000EF16F10408F495C1183009F092C1809162
:101D90002F0381118EC180913003853409F089C1F0
:101DA00044E050E063E577E080E493E00E942A1D80
:101DB000892B09F481C044E050E06BE477E080E4D3
:101DC00093E00E942A1D892B09F476C044E050E07C
:101DD00060EE72E080E493E00E942A1D892B09F0F6
:101DE00068C16AC080913703813029F588E293E0A9
:101DF0000E94E70B1092360382E08093370368E37A
:101E000073E082E493E00E94C31067E577E088E323
:101E100093E00E94C3106EE373E088E493E00E94B5
:101E2000B81063E577E08EE393E00E94B8108AE291
:101E300090E00E94350980917F0783FF0CC01091CC
:101E40003703123041F460E877E087E497E00E94BE
:101E5000760C811128C08091880781110CC0809177
:101E60008907882341F06AE877E08FE397E00E94D2
:101E7000760C81111BC08091860781111AC1809157
:101E80008707882309F415C16AE877E08BE397E0B8
:101E90000E94760C882309F40CC181E080938607A8
:101EA0001092870706C110937F07D5CF81E08093FA
:101EB000880710928907DFCF80913903813009F5B7
:101EC000809144038830E9F4E0919007F091910704
:101ED000309719F08CE393E019950E94F20B109261
:101EE000440390914603983F28F0809147038F5F09
:101EF00080934703985F90934603C7010E9435097A
:101F0000D8C00E946310811105C0E6E3EE16F1040B
:101F100030F00AC0809139038131B9F7C4C0809193
:101F20003903863009F0C5C0809146038B3009F033
:101F3000ACC044E050E06BE377E08CE393E00E94B8
:101F40002A1D892B09F0B5C02091510322FF13C02F
:101F5000E0919407F0919507309759F080914703ED
:101F600020E030E040E050E063E0829586958770A5
:101F7000199585E078C029830E94AF0B8C01809170
:101F800098072981823071F5822F80712271223168
:101F9000E9F460E080E090E00E94040C88E1809326
:101FA0005103E0919207F0919307309739F08091B7
:101FB0004503829586958770199502C080E090E070
:101FC00023E0209398070E94CB0B73C091E090937D
:101FD0009807811103C0C801019602C080E090E01B
:101FE00064E039C0833009F041C00115110509F4DE
:101FF0003FC0E0919407F09195073097C9F1409167
:10200000500350E074E0559547957A95E1F7440FF9
:10201000551F440F551FC70108974E5D5F4F84172A
:10202000950708F4AC01C801840F951FE816F9065E
:1020300020F49701241B350B01C0980180914703C0
:1020400060E082958695877019958091390788237D
:1020500029F068E0C8010E94040C2BC069E0C801A7
:102060000E94040C86E08093980723C0853009F114
:1020700020FF06C08330E9F069E0C8010196F0CF87
:1020800001151105B1F060E0E5CFB701809156026E
:10209000909157020F90DF91CF911F910F91FF9078
:1020A000EF900C94470DC7010E946A10882309F431
:1020B0002CCF80E090E00F90DF91CF911F910F9196
:1020C000FF90EF90089581E090919A07911101C0DF
:1020D00080E00895CF92DF92EF92FF920F931F93CB
:1020E000CF93DF93CBE9D7E07FE9E72E77E0F72EB8
:1020F00000E010E040E020919A0730E0021713075B
:102100006CF55A819B812091460330E0C92ED12C79
:102110002C153D05E1F480914703851318C0F701A4
:1021200020812223A1F02091490330E02850310979
:102130004091480350E0542F4427240F351FE88175
:10214000F9814CE453E06CE373E0199541E00F5FD3
:102150001F4F2596F5E0EF0EF11CCDCF842FDF91B8
:10216000CF911F910F91FF90EF90DF90CF90089546
:10217000FB014081518162817381FC014083518365
:1021800062837383089526E0FB01DC0101900D92C8
:102190002A95E1F708958091F20790E02091F307E6
:1021A000821B910908952091F3078091F207281767
:1021B00050F4E22FF0E0EC50F84F808190E02F5F78
:1021C0002093F30708958FEF9FEF0895E091F307B1
:1021D0008091F207E81730F4F0E0EC50F84F80817E
:1021E00090E008958FEF9FEF08950895CF92DF92CA
:1021F000EF92FF920F931F93CF93DF937C01CB015C
:102200008A012091CF07222389F0EB016B01C40ED4
:10221000D51ECC15DD0569F06991D701ED91FC91D2
:102220000190F081E02DC7011995F3CF642F0E9432
:102230006611C801DF91CF911F910F91FF90EF9030
:10224000DF90CF900895CF93DF931F92CDB7DEB785
:1022500069832091CF072223D1F02091D00720322B
:1022600040F021E030E0FC013383228380E090E005
:1022700015C08091D107E82FF0E0EE52F84F998118
:1022800090838F5F8093D1078093D00705C061E072
:10229000CE0101960E94661181E090E00F90DF91DF
:1022A000CF910895FC011382128248EE53E060E062
:1022B00070E044835583668377838AEE92E091834E
:1022C0008083089583EC97E00C945211613298F466
:1022D00020918108243089F460933608FC0188E35A
:1022E00098E0DC012A2F281B261718F421912D9342
:1022F000F9CF80E0089581E0089582E0089585EDAA
:102300008093BC008091BC0084FDFCCF10928108BA
:10231000089585EC8093BC001092810808951F9267
:102320000F920FB60F9211240BB60F922F933F937B
:102330004F935F936F937F938F939F93AF93BF93CD
:10234000EF93FF938091B900887F803609F49CC099
:1023500068F5883209F45BC090F4803109F454C008
:1023600038F4882309F4F5C0883009F44DC0F5C06D
:10237000883109F44CC0803209F45DC0EEC080346D
:1023800009F468C048F4803309F455C0883309F073
:10239000E4C080931408A8C0803509F44FC0883584
:1023A00009F45DC0883409F0D8C0D5C0883909F473
:1023B000C6C0A8F4883709F467C038F4883609F431
:1023C00063C0803709F460C0C8C0883809F4B7C05A
:1023D000803909F45FC0803809F0BFC05BC0803B22
:1023E00009F485C038F4803A09F466C0883A09F4E3
:1023F0007EC0B3C0803C09F4A6C0883C09F4A3C0E9
:10240000883B09F489C0A9C08091800810C09091D0
:10241000590880915808981770F5E091590881E0A3
:102420008E0F80935908F0E0E65AF74F8081809331
:10243000BB0085EC85C0809314088DC0E0915908DD
:1024400081E08E0F809359088091BB00F0E0E65A3E
:10245000F74F808390915908809158086DC0E091A2
:10246000590881E08E0F809359088091BB00F0E0FD
:10247000E65AF74F808380917F0881116CC081E01C
:1024800080937E0884EA60C083E080938108109284
:102490001508CFCF80911508803208F050C0E09128
:1024A000150881E08E0F809315088091BB00F0E045
:1024B000EA5EF74F8083BDCF80911508803230F4FB
:1024C000E0911508F0E0EA5EF74F10820E947F115C
:1024D0006091150870E0E0917A08F0917B0886E140
:1024E00098E01995109215080E94891136C084E071
:1024F000809381081092370810923608E0917C088A
:10250000F0917D08199580913608811105C081E010
:102510008093360810923808E091370881E08E0FDA
:1025200080933708F0E0E85CF74F80818093BB0030
:102530009091370880913608981708F47ACF85E88B
:102540008093BC000AC085EC8093BC001092810887
:1025500004C0109214080E947F11FF91EF91BF9167
:10256000AF919F918F917F916F915F914F913F912B
:102570002F910F900BBE0F900FBE0F901F901895CC
:102580006F927F928F929F92AF92BF92CF92DF9283
:10259000EF92FF920F931F93CF93DF935C014A0159
:1025A00069013801EB01C60ED71ECC15DD0574F4A8
:1025B000D501ED91FC910084F185E02D8701930117
:1025C000A401BE01C50119952196EFCFDF91CF91EE
:1025D0001F910F91FF90EF90DF90CF90BF90AF9041
:1025E0009F908F907F906F9008956F927F928F92BF
:1025F0009F92AF92BF92CF92DF92EF92FF920F9392
:102600001F93CF93DF93EC015B016A01390148010D
:10261000E881F9810284F385E02D87011995E8812D
:10262000F981A601480D591D415051090284F385D5
:10263000E02D9301B501CE011995E881F98100845F
:10264000F185E02D9401A601B501CE011995E8812F
:10265000F981B501660D771D615071090084F1851E
:10266000E02D9401A601CE011995DF91CF911F9124
:102670000F91FF90EF90DF90CF90BF90AF909F9021
:102680008F907F906F900895EF92FF920F931F931A
:10269000DC01ED91FC910680F781E02D7B0101E4E6
:1026A00010E020E630E040E050E060E070E0199596
:1026B0001F910F91FF90EF900895CF93DF931F929A
:1026C000CDB7DEB789E149830E94851860E08AE1D1
:1026D0000E94851861E088E10E94851860E088E129
:1026E0000E948518298141E068E189E10E94BB18B8
:1026F00061E08AE10F90DF91CF910C9485181F93D0
:10270000CF93DF93EC01162F44E260E00E945D134B
:10271000412F4F71406860E0CE01DF91CF911F9152
:102720000C945D13CF93DF93EC0160E08BE10E948A
:10273000851861E08BE10E94851843E260E0CE01DC
:102740000E945D134FE260E0CE010E945D1344E2FF
:1027500060E0CE010E945D1340E860E0CE010E947F
:102760005D1344EA60E0CE010E945D134FEA60E031
:10277000CE01DF91CF910C945D13CF93DF93EC01E9
:1027800061E08AE10E944C1861E08BE10E944C18E4
:1027900061E089E10E944C1861E088E10E944C18D8
:1027A00061E082E00E944C1861E082E00E9485189E
:1027B00060E08BE10E94851861E08AE10E94851843
:1027C00060E088E10E94851821E02C838FEF90E083
:1027D0009E838D8318861F822987CE01DF91CF913A
:1027E0000C9492130F931F9380918C0890918D08F5
:1027F0006817790724F470938D0860938C08809192
:102800008808909189088217930724F430938908E7
:102810002093880880918A0890918B08481759075F
:1028200024F450938B0840938A08809186089091F5
:1028300087088017910724F410938708009386086F
:102840001F910F9108950F931F93EEE8F8E01192F6
:102850002BE0EE3EF207D9F700E410E02FE530E080
:1028600040E050E060E070E00E94F2131F910F9191
:1028700008950F931F93CF93DF9360367105D0F5C2
:1028800041345105B8F5EA01E3E0D595C795EA95DD
:10289000E1F7DA01A770BB27232BA1F020E62C9FDC
:1028A000F0012D9FF00D1124E60FF71FE257F74FAF
:1028B00021E030E00A2E01C0220F0A94EAF73081AD
:1028C000322B13C020E62C9FF0012D9FF00D112418
:1028D000E60FF71FE257F74F21E030E001C0220F6B
:1028E000AA95EAF720953081322330838A019B0133
:1028F0000E94F213DF91CF911F910F9108957F9263
:102900008F929F92AF92BF92CF92DF92EF92FF92FF
:102910000F931F93CF93DF938C01AEE8CA2EA8E0EC
:10292000DA2E712C80E090E0B0E1AB2EB12C7C016E
:1029300028E0E20EF11C20918A0830918B082E15B8
:102940003F0554F0739480E6C80ED11C28E4E216CB
:10295000F10409F05EC007C0209186083091870815
:102960002817390714F58FE590E090938D08809330
:102970008C08109289081092880880E490E0909367
:102980008B0880938A081092870810928608DF913E
:10299000CF911F910F91FF90EF90DF90CF90BF905C
:1029A000AF909F908F907F900895472D406B60E08F
:1029B000C8010E945D13C0918C08D0918D08809051
:1029C000880890908908CE01B5010E94C71C482F45
:1029D00060E0C8010E945D13AE01D7FF02C0415FF5
:1029E0005F4FF4E055954795FA95E1F7406160E057
:1029F000C8010E945D138C169D060CF4A3CFF6014E
:102A0000EC0FFD1F408161E0C8010E945D1321961B
:102A1000F2CFC7018CCF2F923F924F925F926F926D
:102A20007F928F929F92AF92BF92CF92DF92EF925E
:102A3000FF920F931F93CF93DF93CDB7DEB72C9701
:102A40000FB6F894DEBF0FBECDBF4C013A01188718
:102A50000F83FA86E986CD82603671050CF08BC053
:102A6000413451050CF087C0AC2CB12CCB0145E0B2
:102A7000C49E800D911D1124181619060CF07BC000
:102A8000C50113E0880F991F1A95E1F7860D971D70
:102A9000181619060CF06FC0B5E02B9F2001112409
:102AA0007C876B876B011C82F201EB53FE4F2F0179
:102AB000461A570AFC81F53039F0EB85FC85E40DA8
:102AC000F51D24912B8301C01B827A826982130138
:102AD0001E823B8130FF0FC04D81413019F42F81A0
:102AE000388514C0D401ED91FC910680F781E02D6A
:102AF000EF80F8841AC0E985FA852F813885E217BE
:102B0000F307D1F03D81313041F49F01A1016B8584
:102B10007C85C4010E9439140FC0D401ED91FC9151
:102B20000680F781E02DE984FA84850195014981C9
:102B30005A81B601C4011995BB81B695BB83EE815C
:102B4000EF5FEE8329813A812A0D3B1D3A83298369
:102B50003FEF231A330AE83009F0BBCF4C814F5FB7
:102B60004C83CA0CDB1C8B859C8501969C878B87CC
:102B7000463009F09FCF2C960FB6F894DEBF0FBEFB
:102B8000CDBFDF91CF911F910F91FF90EF90DF901C
:102B9000CF90BF90AF909F908F907F906F905F90FD
:102BA0004F903F902F900895CF92EF92FF920F9306
:102BB0001F93CF93DF93EC01262F80918208909191
:102BC00083088134910524F01092830810928208C2
:102BD0002A3009F12D3061F1EF80F8840D811E81DA
:102BE0004091820850918308609184087091850813
:102BF000C984CE010E940B158091840890918508AC
:102C0000069690938508809384082C81222381F076
:102C10008B3591056CF0809182089091830808961D
:102C200090938308809382081092850810928408FC
:102C300081E090E0DF91CF911F910F91FF90EF9095
:102C4000CF9008952F923F924F925F926F927F9212
:102C50008F929F92AF92BF92CF92DF92EF92FF92AC
:102C60000F931F93CF93DF9300D01F92CDB7DEB7A2
:102C70003C017C836B836A015901FA82E9829801E5
:102C8000241B350B37FF03C0319521953109C50150
:102C90004B815C81841B950B97FF03C091958195B7
:102CA000910922242394312C8217930714F0212CAC
:102CB000312C2114310459F09A2D8B2D5801092FF4
:102CC000182F9B818C81DC82CB82C92ED82E8B81E0
:102CD0009C81A816B9065CF49C2D8D2D6801092FE6
:102CE000182F9B818C81BC82AB82A92EB82E250126
:102CF000EB81FC814E1A5F0A48018C189D0897FEF3
:102D000003C0919481949108720157FE03C0FFEFB4
:102D1000EF1AFF0AF594E794C016D1061CF401E0FF
:102D200010E01CC00FEF1FEF19C029813A81211458
:102D30003104D1F04B815C81B601C3010E9439148A
:102D4000E818F908F7FE04C0C00ED11EE40CF51C0B
:102D50004B815C814F5F5F4F5C834B838B819C8198
:102D6000A816B90614F704C0A6016B817C81E5CFD3
:102D70000F900F900F900F90DF91CF911F910F91B7
:102D8000FF90EF90DF90CF90BF90AF909F908F908B
:102D90007F906F905F904F903F902F900895EF92AB
:102DA000FF920F931F93240F351F21503109780193
:102DB00089019B010E9422161F910F91FF90EF90B5
:102DC0000895EF92FF920F931F93260F371F215004
:102DD000310978018A010E9422161F910F91FF90FC
:102DE000EF9008951092490E08951F920F920FB61A
:102DF0000F9211242F933F938F939F93AF93BF9381
:102E000080914B0E90914C0EA0914D0EB0914E0EB4
:102E100030914A0E23E0230F2D3720F40196A11D97
:102E2000B11D05C026E8230F0296A11DB11D2093F8
:102E30004A0E80934B0E90934C0EA0934D0EB09380
:102E40004E0E80914F0E9091500EA091510EB09168
:102E5000520E0196A11DB11D80934F0E9093500EFE
:102E6000A093510EB093520EBF91AF919F918F914D
:102E70003F912F910F900FBE0F901F9018952FB775
:102E8000F89460914B0E70914C0E80914D0E909184
:102E90004E0E2FBF08953FB7F89480914F0E90913A
:102EA000500EA091510EB091520E26B5A89B05C0B0
:102EB0002F3F19F00196A11DB11D3FBF6627782F46
:102EC000892F9A2F620F711D811D911D42E0660F9F
:102ED000771F881F991F4A95D1F70895CF92DF92E7
:102EE000EF92FF92CF93DF936B017C010E944B170F
:102EF000EB01C114D104E104F10489F00E94B21C79
:102F00000E944B176C1B7D0B683E734090F381E071
:102F1000C81AD108E108F108C851DC4FEACFDF91A7
:102F2000CF91FF90EF90DF90CF900895789484B583
:102F3000826084BD84B5816084BD85B5826085BDB5
:102F400085B5816085BDEEE6F0E08081816080839B
:102F5000E1E8F0E01082808182608083808181607E
:102F60008083E0E8F0E0808181608083E1EBF0E045
:102F7000808184608083E0EBF0E0808181608083E9
:102F8000E1E9F0E0808182608083808181608083DC
:102F9000E0E9F0E0808181608083E1EAF0E0808117
:102FA00082608083808181608083E0EAF0E08081BC
:102FB00081608083E1E2F1E08081826080838081B2
:102FC00081608083E0E2F1E0808181608083EAE7D4
:102FD000F0E0808184608083808182608083808152
:102FE000816080838081806880831092C100089511
:102FF00090E0FC013197E231F10508F04CC0EE5849
:10300000FF4F0C94FD1C809180008F7703C080914E
:1030100080008F7D80938000089580918000877F5D
:10302000F9CF84B58F7702C084B58F7D84BD0895B4
:103030008091B0008F7703C08091B0008F7D809326
:10304000B0000895809190008F7707C08091900024
:103050008F7D03C080919000877F809390000895BA
:103060008091A0008F7707C08091A0008F7D03C062
:103070008091A000877F8093A00008958091200117
:103080008F7707C0809120018F7D03C08091200140
:10309000877F809320010895CF93DF9390E0FC0118
:1030A000EA5FF84F2491FC01E45BF84F8491882398
:1030B00049F190E0880F991FFC01E455F84FA59164
:1030C000B4918E56984FFC01C591D4919FB7611170
:1030D00008C0F8948C91209582238C938881822358
:1030E0000AC0623051F4F8948C91322F30958323CA
:1030F0008C938881822B888304C0F8948C91822BD6
:103100008C939FBFDF91CF9108950F931F93CF931F
:10311000DF931F92CDB7DEB7282F30E0F901E054DE
:10312000F94F8491F901EA5FF84F1491F901E45BDA
:10313000F84F04910023C9F0882321F069830E948D
:10314000F8176981E02FF0E0EE0FFF1FEE56F84F01
:10315000A591B4919FB7F8948C91611103C010951B
:10316000812301C0812B8C939FBF0F90DF91CF9162
:103170001F910F910895BF92CF92DF92EF92FF922D
:103180000F931F93CF93DF93C82ED62EB42EC7E094
:10319000D0E0022F10E087E0E82EF12CB1100AC039
:1031A000F701EC1BFD0BB80102C075956795EA9518
:1031B000E2F707C0B8010C2E02C0759567950A9416
:1031C000E2F7617077278C2D0E94851861E08D2DC4
:1031D0000E94851860E08D2D0E9485182197F0F6D9
:1031E000DF91CF911F910F91FF90EF90DF90CF90E3
:1031F000BF900895FC01818D228D90E0805C9F4FEF
:10320000821B91098F7399270895FC01918D828DFE
:10321000981731F0828DE80FF11D858D90E00895AB
:103220008FEF9FEF0895FC01918D828D981761F0CB
:10323000828DDF01A80FB11D5D968C91928D9F5FED
:103240009F73928F90E008958FEF9FEF08958EEC1B
:103250009AE1892B41F080E090E0892B21F00E94D7
:10326000CE1A811125C08BE79BE1892B41F080E0CC
:1032700090E0892B21F00E947B1B81111CC080E013
:1032800090E0892B41F080E090E0892B21F00E94B2
:103290000000811113C080E090E0892BA1F080E054
:1032A00090E0892B81F00E94000081110AC00895EE
:1032B0000E940000D8CF0E940000E1CF0E940000D1
:1032C000EACF0C9400000895FC01848DDF01A80F63
:1032D000B11DA35ABF4F2C91848D90E001968F733E
:1032E0009927848FA689B7892C93A089B1898C915D
:1032F00080648C93938D848D981306C00288F38923
:10330000E02D80818F7D80830895CF93DF93EC0142
:10331000888D8823C9F0EA89FB89808185FD05C0F5
:10332000A889B9898C9186FD0FC00FB607FCF5CF2F
:10333000808185FFF2CFA889B9898C9185FFEDCF77
:10334000CE010E946419E7CFDF91CF910895CF920B
:10335000DF92FF920F931F93CF93DF931F92CDB70E
:10336000DEB76C01DC015B969C915B975C968C915F
:103370005C97981307C05096ED91FC91519780810E
:1033800085FD32C0F601038D10E00F5F1F4F0F73F4
:103390001127F02EF601848DF81211C00FB607FC2C
:1033A000F9CFD6015096ED91FC915197808185FF20
:1033B000F1CFC60169830E9464196981EBCF838DC7
:1033C000E80FF11DE35AFF4F6083D6015B960C9323
:1033D0005B975296ED91FC91539780818062808338
:1033E00081E058968C930DC0D6015696ED91FC91D4
:1033F000579760835096ED91FC915197808180643E
:10340000808381E090E00F90DF91CF911F910F9129
:10341000FF90DF90CF900895BF92CF92DF92EF920E
:10342000FF92CF93DF93EC016A017B01B22EE88912
:10343000F98982E08083411581EE580761057105A5
:10344000A1F060E079E08DE390E0A70196010E9491
:10345000DB1C215031094109510956954795379593
:103460002795211580E1380798F0E889F9891082BD
:1034700060E874E88EE190E0A70196010E94DB1CF1
:10348000215031094109510956954795379527959E
:10349000EC85FD853083EE85FF852083188EEC89D1
:1034A000FD89B082EA89FB89808180618083EA8915
:1034B000FB89808188608083EA89FB8980818068BC
:1034C0008083EA89FB8980818F7D8083DF91CF9122
:1034D000FF90EF90DF90CF90BF9008951F920F92D2
:1034E0000FB60F9211240BB60F922F938F939F93C9
:1034F000EF93FF93E091630EF091640E8081E09171
:10350000690EF0916A0E82FD12C0908180916C0E5E
:103510008F5F8F7320916D0E821751F0E0916C0ECA
:10352000F0E0ED5AF14F958F80936C0E01C08081D1
:10353000FF91EF919F918F912F910F900BBE0F9064
:103540000FBE0F901F9018951F920F920FB60F92FB
:1035500011240BB60F922F933F934F935F936F936A
:103560007F938F939F93AF93BF93EF93FF9383E5E5
:103570009EE00E946419FF91EF91BF91AF919F91DE
:103580008F917F916F915F914F913F912F910F900C
:103590000BBE0F900FBE0F901F90189583E59EE015
:1035A0000E94FA1821E0892B09F420E0822F089567
:1035B0001092560E1092550E88EE93E0A0E0B0E007
:1035C0008093570E9093580EA093590EB0935A0EB5
:1035D0008CE093E09093540E8093530E85EC90E032
:1035E0009093600E80935F0E84EC90E09093620E57
:1035F0008093610E80EC90E09093640E8093630E54
:1036000081EC90E09093660E8093650E82EC90E0E2
:103610009093680E8093670E86EC90E090936A0E0C
:103620008093690E10926C0E10926D0E10926E0EB9
:1036300010926F0E08951F920F920FB60F921124E1
:103640000BB60F922F938F939F93EF93FF93E0917D
:10365000000FF091010F8081E091060FF091070FAC
:1036600082FD12C090818091090F8F5F8F7320912E
:103670000A0F821751F0E091090FF0E0E051F14F8D
:10368000958F8093090F01C08081FF91EF919F91E9
:103690008F912F910F900BBE0F900FBE0F901F9028
:1036A00018951F920F920FB60F9211240BB60F921E
:1036B0002F933F934F935F936F937F938F939F933A
:1036C000AF93BF93EF93FF9380EF9EE00E94641946
:1036D000FF91EF91BF91AF919F918F917F916F91EA
:1036E0005F914F913F912F910F900BBE0F900FBEA6
:1036F0000F901F90189580EF9EE00E94FA1821E02D
:10370000892B09F420E0822F08951092F30E109275
:10371000F20E88EE93E0A0E0B0E08093F40E909378
:10372000F50EA093F60EB093F70E8CE093E0909315
:10373000F10E8093F00E8DEC90E09093FD0E80934F
:10374000FC0E8CEC90E09093FF0E8093FE0E88ECC4
:1037500090E09093010F8093000F89EC90E090939C
:10376000030F8093020F8AEC90E09093050F8093F3
:10377000040F8EEC90E09093070F8093060F109249
:10378000090F10920A0F10920B0F10920C0F089550
:1037900008950E9496170E94C81B0E941B04C7E24E
:1037A000D9E10E949C042097E1F30E942719F9CFE8
:1037B000CF92DF92EF92FF920F931F93CF93DF93FD
:1037C0006C017A01EB01E60EF71E00E010E0CE1569
:1037D000DF0561F06991D601ED91FC910190F081D6
:1037E000E02DC6011995080F191FF1CFC801DF910F
:1037F000CF911F910F91FF90EF90DF90CF900895A0
:103800006115710581F0DB010D900020E9F7AD0134
:1038100041505109461B570BDC01ED91FC91028090
:10382000F381E02D199480E090E008950C94001C41
:10383000DC01ED91FC910190F081E02D19940F9342
:103840001F93CF93DF93EC016DE00E94181C8C0155
:103850006AE0CE010E94181C800F911FDF91CF916A
:103860001F910F9108950F931F93CF93DF93EC0156
:103870000E94001C8C01CE010E941F1C800F911F12
:10388000DF91CF911F910F9108958F929F92AF92E8
:10389000BF92CF92DF92EF92FF920F931F93CF933D
:1038A000DF93CDB7DEB7A1970FB6F894DEBF0FBE9A
:1038B000CDBF7C01C42EE52FCB01D22E19A221E071
:1038C0002D1510F02AE0D22E8E010F5D1F4F8D2C8A
:1038D000912CA12CB12C6C2D7E2FA50194010E945E
:1038E000DB1C8C2DD29E80191124015011098A30C5
:1038F00014F4805D01C0895CF801808321153105D5
:103900004105510521F0C22EE32FCA01E4CFB801D1
:10391000C7010E94001CA1960FB6F894DEBF0FBE2F
:10392000CDBFDF91CF911F910F91FF90EF90DF906E
:10393000CF90BF90AF909F908F9008952115310543
:1039400041F4DC01ED91FC910190F081E02D642FB8
:1039500019940C94451C9A01462F50E060E070E0E9
:103960000C949E1C0895AA1BBB1B51E107C0AA1F03
:10397000BB1FA617B70710F0A61BB70B881F991F10
:103980005A95A9F780959095BC01CD01089597FBB4
:10399000072E16F4009407D077FD09D00E94B31CBF
:1039A00007FC05D03EF4909581959F4F0895709542
:1039B00061957F4F0895A1E21A2EAA1BBB1BFD0142
:1039C0000DC0AA1FBB1FEE1FFF1FA217B307E407FE
:1039D000F50720F0A21BB30BE40BF50B661F771F56
:1039E000881F991F1A9469F7609570958095909536
:1039F0009B01AC01BD01CF010895EE0FFF1F0590A3
:103A0000F491E02D1994A29FB001B39FC001A39F30
:103A1000700D811D1124911DB29F700D811D112407
:103A2000911D08950E94031DA59F900DB49F900DB8
:103A3000A49F800D911D112408950790F691E02D0B
:103A40001994FB01DC0102C005900D9241505040D9
:103A5000D8F70895FB01DC0104C08D910190801915
:103A600021F441505040C8F7881B990B0895F894F1
:023A7000FFCF86
:103A720000008D0F80007777772E6C756361646527
:103A82006E74656C6C612E6974000AC8010BFFFFCD
:103A9200FF000A1012FA0A10122502020304070795
:103AA20063825363350141726475696E6F2D3030E4
:103AB2000000000000000000000000000000000004
:103AC20000000000000050000A01FFFFFFFFFFFF9F
:103AD2006661696C656420746F20616363657373EA
:103AE2002045746865726E657420436F6E74726FE0
:103AF2006C6C6572000A45746865726E6574206349
:103B02006F6E74726F6C6C657220696E6974696134
:103B12006C69736564004661696C656420746F202A
:103B22007365742049502061646472657373002E5A
:103B320000444E53204661696C656400444E532034
:103B42007265736F6C7574696F6E20446F6E650079
:103B5200FFFFFFFFFFFF000000002311F610CB1054
:103B6200D310E610F51000000000D415D81BF51292
:103B7200C012CF16E116441300000000A719D81B8B
:083B8200FA1813190519851941
:00000001FF
